{"abi":[{"type":"constructor","inputs":[],"stateMutability":"payable"},{"type":"function","name":"UPGRADE_INTERFACE_VERSION","inputs":[],"outputs":[{"name":"","type":"string","internalType":"string"}],"stateMutability":"view"},{"type":"function","name":"claim","inputs":[{"name":"proof","type":"bytes32[]","internalType":"bytes32[]"},{"name":"addr","type":"address","internalType":"address"},{"name":"amount","type":"uint256","internalType":"uint256"}],"outputs":[],"stateMutability":"nonpayable"},{"type":"function","name":"initialize","inputs":[{"name":"owner_","type":"address","internalType":"address"},{"name":"root_","type":"bytes32","internalType":"bytes32"},{"name":"token_","type":"address","internalType":"address"}],"outputs":[],"stateMutability":"nonpayable"},{"type":"function","name":"owner","inputs":[],"outputs":[{"name":"","type":"address","internalType":"address"}],"stateMutability":"view"},{"type":"function","name":"pause","inputs":[],"outputs":[],"stateMutability":"nonpayable"},{"type":"function","name":"paused","inputs":[],"outputs":[{"name":"","type":"bool","internalType":"bool"}],"stateMutability":"view"},{"type":"function","name":"proxiableUUID","inputs":[],"outputs":[{"name":"","type":"bytes32","internalType":"bytes32"}],"stateMutability":"view"},{"type":"function","name":"renounceOwnership","inputs":[],"outputs":[],"stateMutability":"nonpayable"},{"type":"function","name":"setToken","inputs":[{"name":"newToken","type":"address","internalType":"address"}],"outputs":[],"stateMutability":"nonpayable"},{"type":"function","name":"token","inputs":[],"outputs":[{"name":"","type":"address","internalType":"address"}],"stateMutability":"view"},{"type":"function","name":"transferOwnership","inputs":[{"name":"newOwner","type":"address","internalType":"address"}],"outputs":[],"stateMutability":"nonpayable"},{"type":"function","name":"unpause","inputs":[],"outputs":[],"stateMutability":"nonpayable"},{"type":"function","name":"upgradeToAndCall","inputs":[{"name":"newImplementation","type":"address","internalType":"address"},{"name":"data","type":"bytes","internalType":"bytes"}],"outputs":[],"stateMutability":"payable"},{"type":"event","name":"Initialized","inputs":[{"name":"version","type":"uint64","indexed":false,"internalType":"uint64"}],"anonymous":false},{"type":"event","name":"OwnershipTransferred","inputs":[{"name":"previousOwner","type":"address","indexed":true,"internalType":"address"},{"name":"newOwner","type":"address","indexed":true,"internalType":"address"}],"anonymous":false},{"type":"event","name":"Paused","inputs":[{"name":"account","type":"address","indexed":false,"internalType":"address"}],"anonymous":false},{"type":"event","name":"Unpaused","inputs":[{"name":"account","type":"address","indexed":false,"internalType":"address"}],"anonymous":false},{"type":"event","name":"Upgraded","inputs":[{"name":"implementation","type":"address","indexed":true,"internalType":"address"}],"anonymous":false},{"type":"error","name":"AddressEmptyCode","inputs":[{"name":"target","type":"address","internalType":"address"}]},{"type":"error","name":"AlreadyClaimed","inputs":[{"name":"claimer","type":"address","internalType":"address"}]},{"type":"error","name":"CannotTransfer","inputs":[{"name":"target","type":"address","internalType":"address"},{"name":"amount","type":"uint256","internalType":"uint256"}]},{"type":"error","name":"ERC1967InvalidImplementation","inputs":[{"name":"implementation","type":"address","internalType":"address"}]},{"type":"error","name":"ERC1967NonPayable","inputs":[]},{"type":"error","name":"EnforcedPause","inputs":[]},{"type":"error","name":"ExpectedPause","inputs":[]},{"type":"error","name":"FailedInnerCall","inputs":[]},{"type":"error","name":"InvalidInitialization","inputs":[]},{"type":"error","name":"InvalidProof","inputs":[]},{"type":"error","name":"NotInitializing","inputs":[]},{"type":"error","name":"OwnableInvalidOwner","inputs":[{"name":"owner","type":"address","internalType":"address"}]},{"type":"error","name":"OwnableUnauthorizedAccount","inputs":[{"name":"account","type":"address","internalType":"address"}]},{"type":"error","name":"UUPSUnauthorizedCallContext","inputs":[]},{"type":"error","name":"UUPSUnsupportedProxiableUUID","inputs":[{"name":"slot","type":"bytes32","internalType":"bytes32"}]}],"bytecode":{"object":"0x60a060405230608052610010610015565b6100c7565b7ff0c57e16840df040f15088dc2f81fe391c3923bec73e23a9662efc9c229c6a00805468010000000000000000900460ff16156100655760405163f92ee8a960e01b815260040160405180910390fd5b80546001600160401b03908116146100c45780546001600160401b0319166001600160401b0390811782556040519081527fc7f505b2f371ae2175ee4913f4499e1f2633a7b5936321eed1cdaeb6115181d29060200160405180910390a15b50565b6080516110686100f06000396000818161074e0152818161077701526108bd01526110686000f3fe6080604052600436106100c25760003560e01c80638456cb591161007f578063ca21b17711610059578063ca21b17714610222578063d26b3e6e14610242578063f2fde38b14610262578063fc0c546a1461028257600080fd5b80638456cb591461017e5780638da5cb5b14610193578063ad3cb1cc146101e457600080fd5b8063144fa6d7146100c75780633f4ba83a146100e95780634f1ef286146100fe57806352d1902d146101115780635c975abb14610139578063715018a614610169575b600080fd5b3480156100d357600080fd5b506100e76100e2366004610d29565b6102a2565b005b3480156100f557600080fd5b506100e76102cc565b6100e761010c366004610d8b565b6102de565b34801561011d57600080fd5b506101266102fd565b6040519081526020015b60405180910390f35b34801561014557600080fd5b506000805160206110138339815191525460ff166040519015158152602001610130565b34801561017557600080fd5b506100e761031a565b34801561018a57600080fd5b506100e761032c565b34801561019f57600080fd5b507f9016d09d72d40fdae2fd8ceac6b6234c7706214fd39c1cd1e609a0528c199300546001600160a01b03165b6040516001600160a01b039091168152602001610130565b3480156101f057600080fd5b50610215604051806040016040528060058152602001640352e302e360dc1b81525081565b6040516101309190610e55565b34801561022e57600080fd5b506100e761023d366004610e88565b61033c565b34801561024e57600080fd5b506100e761025d366004610f49565b6104f0565b34801561026e57600080fd5b506100e761027d366004610d29565b61064a565b34801561028e57600080fd5b506002546101cc906001600160a01b031681565b6102aa610688565b600280546001600160a01b0319166001600160a01b0392909216919091179055565b6102d4610688565b6102dc6106e3565b565b6102e6610743565b6102ef826107e8565b6102f982826107f0565b5050565b60006103076108b2565b50600080516020610ff383398151915290565b610322610688565b6102dc60006108fb565b610334610688565b6102dc61096c565b72ffffffffffffffffffffffffffffffffffffff600883901c166000908152600360205260409020546001600160a01b03831690600160ff85161b16156103a657604051632058b6db60e01b81526001600160a01b03841660048201526024015b60405180910390fd5b604080516001600160a01b038516602082015290810183905260009060600160408051601f198184030181528282528051602091820120908301520160405160208183030381529060405280519060200120905061040785600154836109b5565b610424576040516309bde33960e01b815260040160405180910390fd5b600882901c60009081526003602052604090208054600160ff85161b17905560025460405163a9059cbb60e01b81526001600160a01b038681166004830152602482018690529091169063a9059cbb906044016020604051808303816000875af1158015610496573d6000803e3d6000fd5b505050506040513d601f19601f820116820180604052508101906104ba9190610f85565b6104e957604051637111172f60e01b81526001600160a01b03851660048201526024810184905260440161039d565b5050505050565b7ff0c57e16840df040f15088dc2f81fe391c3923bec73e23a9662efc9c229c6a008054600160401b810460ff16159067ffffffffffffffff166000811580156105365750825b905060008267ffffffffffffffff1660011480156105535750303b155b905081158015610561575080155b1561057f5760405163f92ee8a960e01b815260040160405180910390fd5b845467ffffffffffffffff1916600117855583156105a957845460ff60401b1916600160401b1785555b60005460ff166105fa576105bc886109cd565b6000805460ff191660011790556105d16109de565b6105d96109e6565b6001879055600280546001600160a01b0319166001600160a01b0388161790555b831561064057845460ff60401b19168555604051600181527fc7f505b2f371ae2175ee4913f4499e1f2633a7b5936321eed1cdaeb6115181d29060200160405180910390a15b5050505050505050565b610652610688565b6001600160a01b03811661067c57604051631e4fbdf760e01b81526000600482015260240161039d565b610685816108fb565b50565b336106ba7f9016d09d72d40fdae2fd8ceac6b6234c7706214fd39c1cd1e609a0528c199300546001600160a01b031690565b6001600160a01b0316146102dc5760405163118cdaa760e01b815233600482015260240161039d565b6106eb6109f6565b600080516020611013833981519152805460ff191681557f5db9ee0a495bf2e6ff9c91a7834c1ba4fdd244a5e8aa4e537bd38aeae4b073aa335b6040516001600160a01b03909116815260200160405180910390a150565b306001600160a01b037f00000000000000000000000000000000000000000000000000000000000000001614806107ca57507f00000000000000000000000000000000000000000000000000000000000000006001600160a01b03166107be600080516020610ff3833981519152546001600160a01b031690565b6001600160a01b031614155b156102dc5760405163703e46dd60e11b815260040160405180910390fd5b610685610688565b816001600160a01b03166352d1902d6040518163ffffffff1660e01b8152600401602060405180830381865afa92505050801561084a575060408051601f3d908101601f1916820190925261084791810190610fa7565b60015b61087257604051634c9c8ce360e01b81526001600160a01b038316600482015260240161039d565b600080516020610ff383398151915281146108a357604051632a87526960e21b81526004810182905260240161039d565b6108ad8383610a26565b505050565b306001600160a01b037f000000000000000000000000000000000000000000000000000000000000000016146102dc5760405163703e46dd60e11b815260040160405180910390fd5b7f9016d09d72d40fdae2fd8ceac6b6234c7706214fd39c1cd1e609a0528c19930080546001600160a01b031981166001600160a01b03848116918217845560405192169182907f8be0079c531659141344cd1fd0a4f28419497f9722a3daafe3b4186f6b6457e090600090a3505050565b610974610a7c565b600080516020611013833981519152805460ff191660011781557f62e78cea01bee320cd4e420270b5ea74000d11b0c9f74754ebdbfc544b05a25833610725565b6000826109c28584610aad565b1490505b9392505050565b6109d5610af0565b61068581610b39565b6102dc610af0565b6109ee610af0565b6102dc610b41565b6000805160206110138339815191525460ff166102dc57604051638dfc202b60e01b815260040160405180910390fd5b610a2f82610b62565b6040516001600160a01b038316907fbc7cd75a20ee27fd9adebab32041f755214dbc6bffa90cc0225b39da2e5c2d3b90600090a2805115610a74576108ad8282610bc7565b6102f9610c3d565b6000805160206110138339815191525460ff16156102dc5760405163d93c066560e01b815260040160405180910390fd5b600081815b8451811015610ae857610ade82868381518110610ad157610ad1610fc0565b6020026020010151610c5c565b9150600101610ab2565b509392505050565b7ff0c57e16840df040f15088dc2f81fe391c3923bec73e23a9662efc9c229c6a0054600160401b900460ff166102dc57604051631afcd79f60e31b815260040160405180910390fd5b610652610af0565b610b49610af0565b600080516020611013833981519152805460ff19169055565b806001600160a01b03163b600003610b9857604051634c9c8ce360e01b81526001600160a01b038216600482015260240161039d565b600080516020610ff383398151915280546001600160a01b0319166001600160a01b0392909216919091179055565b6060600080846001600160a01b031684604051610be49190610fd6565b600060405180830381855af49150503d8060008114610c1f576040519150601f19603f3d011682016040523d82523d6000602084013e610c24565b606091505b5091509150610c34858383610c88565b95945050505050565b34156102dc5760405163b398979f60e01b815260040160405180910390fd5b6000818310610c785760008281526020849052604090206109c6565b5060009182526020526040902090565b606082610c9d57610c9882610ce4565b6109c6565b8151158015610cb457506001600160a01b0384163b155b15610cdd57604051639996b31560e01b81526001600160a01b038516600482015260240161039d565b50806109c6565b805115610cf45780518082602001fd5b604051630a12f52160e11b815260040160405180910390fd5b80356001600160a01b0381168114610d2457600080fd5b919050565b600060208284031215610d3b57600080fd5b6109c682610d0d565b634e487b7160e01b600052604160045260246000fd5b604051601f8201601f1916810167ffffffffffffffff81118282101715610d8357610d83610d44565b604052919050565b60008060408385031215610d9e57600080fd5b610da783610d0d565b915060208084013567ffffffffffffffff80821115610dc557600080fd5b818601915086601f830112610dd957600080fd5b813581811115610deb57610deb610d44565b610dfd601f8201601f19168501610d5a565b91508082528784828501011115610e1357600080fd5b80848401858401376000848284010152508093505050509250929050565b60005b83811015610e4c578181015183820152602001610e34565b50506000910152565b6020815260008251806020840152610e74816040850160208701610e31565b601f01601f19169190910160400192915050565b600080600060608486031215610e9d57600080fd5b833567ffffffffffffffff80821115610eb557600080fd5b818601915086601f830112610ec957600080fd5b8135602082821115610edd57610edd610d44565b8160051b9250610eee818401610d5a565b828152928401810192818101908a851115610f0857600080fd5b948201945b84861015610f2657853582529482019490820190610f0d565b9750610f359050888201610d0d565b955050505050604084013590509250925092565b600080600060608486031215610f5e57600080fd5b610f6784610d0d565b925060208401359150610f7c60408501610d0d565b90509250925092565b600060208284031215610f9757600080fd5b815180151581146109c657600080fd5b600060208284031215610fb957600080fd5b5051919050565b634e487b7160e01b600052603260045260246000fd5b60008251610fe8818460208701610e31565b919091019291505056fe360894a13ba1a3210667c828492db98dca3e2076cc3735a920a3ca505d382bbccd5ed15c6e187e77e9aee88184c21f4f2182ab5827cb3b7e07fbedcd63f03300a2646970667358221220314414e336cef0a7d0a317b5b073980ef03d8c7fca2a32805505505e2ea58d3d64736f6c63430008190033","linkReferences":{}},"methodIdentifiers":{"UPGRADE_INTERFACE_VERSION()":"ad3cb1cc","claim(bytes32[],address,uint256)":"ca21b177","initialize(address,bytes32,address)":"d26b3e6e","owner()":"8da5cb5b","pause()":"8456cb59","paused()":"5c975abb","proxiableUUID()":"52d1902d","renounceOwnership()":"715018a6","setToken(address)":"144fa6d7","token()":"fc0c546a","transferOwnership(address)":"f2fde38b","unpause()":"3f4ba83a","upgradeToAndCall(address,bytes)":"4f1ef286"},"id":1}