{"abi":[{"type":"constructor","inputs":[],"stateMutability":"payable"},{"type":"receive","stateMutability":"payable"},{"type":"function","name":"DOMAIN_SEPARATOR","inputs":[],"outputs":[{"name":"","type":"bytes32","internalType":"bytes32"}],"stateMutability":"view"},{"type":"function","name":"UPGRADE_INTERFACE_VERSION","inputs":[],"outputs":[{"name":"","type":"string","internalType":"string"}],"stateMutability":"view"},{"type":"function","name":"allowance","inputs":[{"name":"owner","type":"address","internalType":"address"},{"name":"spender","type":"address","internalType":"address"}],"outputs":[{"name":"","type":"uint256","internalType":"uint256"}],"stateMutability":"view"},{"type":"function","name":"approve","inputs":[{"name":"spender","type":"address","internalType":"address"},{"name":"value","type":"uint256","internalType":"uint256"}],"outputs":[{"name":"","type":"bool","internalType":"bool"}],"stateMutability":"nonpayable"},{"type":"function","name":"balanceOf","inputs":[{"name":"account","type":"address","internalType":"address"}],"outputs":[{"name":"","type":"uint256","internalType":"uint256"}],"stateMutability":"view"},{"type":"function","name":"burn","inputs":[{"name":"value","type":"uint256","internalType":"uint256"}],"outputs":[],"stateMutability":"nonpayable"},{"type":"function","name":"burn","inputs":[{"name":"to","type":"address","internalType":"address"},{"name":"value","type":"uint256","internalType":"uint256"}],"outputs":[],"stateMutability":"nonpayable"},{"type":"function","name":"burnFrom","inputs":[{"name":"account","type":"address","internalType":"address"},{"name":"value","type":"uint256","internalType":"uint256"}],"outputs":[],"stateMutability":"nonpayable"},{"type":"function","name":"decimals","inputs":[],"outputs":[{"name":"","type":"uint8","internalType":"uint8"}],"stateMutability":"view"},{"type":"function","name":"eip712Domain","inputs":[],"outputs":[{"name":"fields","type":"bytes1","internalType":"bytes1"},{"name":"name","type":"string","internalType":"string"},{"name":"version","type":"string","internalType":"string"},{"name":"chainId","type":"uint256","internalType":"uint256"},{"name":"verifyingContract","type":"address","internalType":"address"},{"name":"salt","type":"bytes32","internalType":"bytes32"},{"name":"extensions","type":"uint256[]","internalType":"uint256[]"}],"stateMutability":"view"},{"type":"function","name":"exchange","inputs":[{"name":"amount","type":"uint256","internalType":"uint256"}],"outputs":[{"name":"","type":"uint256","internalType":"uint256"}],"stateMutability":"nonpayable"},{"type":"function","name":"getEthPrice","inputs":[],"outputs":[{"name":"","type":"uint256","internalType":"uint256"}],"stateMutability":"view"},{"type":"function","name":"initialize","inputs":[{"name":"owner_","type":"address","internalType":"address"},{"name":"priceFeed_","type":"address","internalType":"address"},{"name":"price_","type":"uint256","internalType":"uint256"},{"name":"wallet_","type":"address","internalType":"address payable"}],"outputs":[],"stateMutability":"nonpayable"},{"type":"function","name":"isTaxFree","inputs":[{"name":"to","type":"address","internalType":"address"}],"outputs":[{"name":"","type":"bool","internalType":"bool"}],"stateMutability":"view"},{"type":"function","name":"minimalTax","inputs":[],"outputs":[{"name":"","type":"uint256","internalType":"uint256"}],"stateMutability":"view"},{"type":"function","name":"mint","inputs":[{"name":"to","type":"address","internalType":"address"},{"name":"amount","type":"uint256","internalType":"uint256"}],"outputs":[],"stateMutability":"nonpayable"},{"type":"function","name":"name","inputs":[],"outputs":[{"name":"","type":"string","internalType":"string"}],"stateMutability":"view"},{"type":"function","name":"nonces","inputs":[{"name":"owner","type":"address","internalType":"address"}],"outputs":[{"name":"","type":"uint256","internalType":"uint256"}],"stateMutability":"view"},{"type":"function","name":"oldToken","inputs":[],"outputs":[{"name":"","type":"address","internalType":"address"}],"stateMutability":"view"},{"type":"function","name":"owner","inputs":[],"outputs":[{"name":"","type":"address","internalType":"address"}],"stateMutability":"view"},{"type":"function","name":"pause","inputs":[],"outputs":[],"stateMutability":"nonpayable"},{"type":"function","name":"paused","inputs":[],"outputs":[{"name":"","type":"bool","internalType":"bool"}],"stateMutability":"view"},{"type":"function","name":"permit","inputs":[{"name":"owner","type":"address","internalType":"address"},{"name":"spender","type":"address","internalType":"address"},{"name":"value","type":"uint256","internalType":"uint256"},{"name":"deadline","type":"uint256","internalType":"uint256"},{"name":"v","type":"uint8","internalType":"uint8"},{"name":"r","type":"bytes32","internalType":"bytes32"},{"name":"s","type":"bytes32","internalType":"bytes32"}],"outputs":[],"stateMutability":"nonpayable"},{"type":"function","name":"price","inputs":[],"outputs":[{"name":"","type":"uint256","internalType":"uint256"}],"stateMutability":"view"},{"type":"function","name":"priceFeed","inputs":[],"outputs":[{"name":"","type":"address","internalType":"contract AggregatorV3Interface"}],"stateMutability":"view"},{"type":"function","name":"proxiableUUID","inputs":[],"outputs":[{"name":"","type":"bytes32","internalType":"bytes32"}],"stateMutability":"view"},{"type":"function","name":"renounceOwnership","inputs":[],"outputs":[],"stateMutability":"nonpayable"},{"type":"function","name":"setMinimalTax","inputs":[{"name":"amount","type":"uint256","internalType":"uint256"}],"outputs":[],"stateMutability":"nonpayable"},{"type":"function","name":"setOldToken","inputs":[{"name":"newToken","type":"address","internalType":"address"}],"outputs":[],"stateMutability":"nonpayable"},{"type":"function","name":"setPriceFeed","inputs":[{"name":"newFeed","type":"address","internalType":"address"}],"outputs":[],"stateMutability":"nonpayable"},{"type":"function","name":"setTaxFree","inputs":[{"name":"to","type":"address","internalType":"address"},{"name":"state","type":"bool","internalType":"bool"}],"outputs":[],"stateMutability":"nonpayable"},{"type":"function","name":"setTaxPromille","inputs":[{"name":"amount","type":"uint256","internalType":"uint256"}],"outputs":[],"stateMutability":"nonpayable"},{"type":"function","name":"setWallet","inputs":[{"name":"newWallet","type":"address","internalType":"address payable"}],"outputs":[],"stateMutability":"nonpayable"},{"type":"function","name":"symbol","inputs":[],"outputs":[{"name":"","type":"string","internalType":"string"}],"stateMutability":"view"},{"type":"function","name":"taxPromille","inputs":[],"outputs":[{"name":"","type":"uint256","internalType":"uint256"}],"stateMutability":"view"},{"type":"function","name":"totalSupply","inputs":[],"outputs":[{"name":"","type":"uint256","internalType":"uint256"}],"stateMutability":"view"},{"type":"function","name":"transfer","inputs":[{"name":"to","type":"address","internalType":"address"},{"name":"value","type":"uint256","internalType":"uint256"}],"outputs":[{"name":"","type":"bool","internalType":"bool"}],"stateMutability":"nonpayable"},{"type":"function","name":"transferFrom","inputs":[{"name":"from","type":"address","internalType":"address"},{"name":"to","type":"address","internalType":"address"},{"name":"value","type":"uint256","internalType":"uint256"}],"outputs":[{"name":"","type":"bool","internalType":"bool"}],"stateMutability":"nonpayable"},{"type":"function","name":"transferOwnership","inputs":[{"name":"newOwner","type":"address","internalType":"address"}],"outputs":[],"stateMutability":"nonpayable"},{"type":"function","name":"transferTo","inputs":[{"name":"to","type":"address","internalType":"address"},{"name":"value","type":"uint256","internalType":"uint256"}],"outputs":[{"name":"","type":"bool","internalType":"bool"}],"stateMutability":"nonpayable"},{"type":"function","name":"transferToken","inputs":[{"name":"token","type":"address","internalType":"address"},{"name":"to","type":"address","internalType":"address"},{"name":"value","type":"uint256","internalType":"uint256"}],"outputs":[{"name":"","type":"bool","internalType":"bool"}],"stateMutability":"nonpayable"},{"type":"function","name":"unpause","inputs":[],"outputs":[],"stateMutability":"nonpayable"},{"type":"function","name":"upgradeToAndCall","inputs":[{"name":"newImplementation","type":"address","internalType":"address"},{"name":"data","type":"bytes","internalType":"bytes"}],"outputs":[],"stateMutability":"payable"},{"type":"function","name":"wallet","inputs":[],"outputs":[{"name":"","type":"address","internalType":"address payable"}],"stateMutability":"view"},{"type":"event","name":"Approval","inputs":[{"name":"owner","type":"address","indexed":true,"internalType":"address"},{"name":"spender","type":"address","indexed":true,"internalType":"address"},{"name":"value","type":"uint256","indexed":false,"internalType":"uint256"}],"anonymous":false},{"type":"event","name":"EIP712DomainChanged","inputs":[],"anonymous":false},{"type":"event","name":"Initialized","inputs":[{"name":"version","type":"uint64","indexed":false,"internalType":"uint64"}],"anonymous":false},{"type":"event","name":"OwnershipTransferred","inputs":[{"name":"previousOwner","type":"address","indexed":true,"internalType":"address"},{"name":"newOwner","type":"address","indexed":true,"internalType":"address"}],"anonymous":false},{"type":"event","name":"Paused","inputs":[{"name":"account","type":"address","indexed":false,"internalType":"address"}],"anonymous":false},{"type":"event","name":"Transfer","inputs":[{"name":"from","type":"address","indexed":true,"internalType":"address"},{"name":"to","type":"address","indexed":true,"internalType":"address"},{"name":"value","type":"uint256","indexed":false,"internalType":"uint256"}],"anonymous":false},{"type":"event","name":"Unpaused","inputs":[{"name":"account","type":"address","indexed":false,"internalType":"address"}],"anonymous":false},{"type":"event","name":"Upgraded","inputs":[{"name":"implementation","type":"address","indexed":true,"internalType":"address"}],"anonymous":false},{"type":"error","name":"AddressEmptyCode","inputs":[{"name":"target","type":"address","internalType":"address"}]},{"type":"error","name":"CannotGetEthPrice","inputs":[]},{"type":"error","name":"ECDSAInvalidSignature","inputs":[]},{"type":"error","name":"ECDSAInvalidSignatureLength","inputs":[{"name":"length","type":"uint256","internalType":"uint256"}]},{"type":"error","name":"ECDSAInvalidSignatureS","inputs":[{"name":"s","type":"bytes32","internalType":"bytes32"}]},{"type":"error","name":"ERC1967InvalidImplementation","inputs":[{"name":"implementation","type":"address","internalType":"address"}]},{"type":"error","name":"ERC1967NonPayable","inputs":[]},{"type":"error","name":"ERC20InsufficientAllowance","inputs":[{"name":"spender","type":"address","internalType":"address"},{"name":"allowance","type":"uint256","internalType":"uint256"},{"name":"needed","type":"uint256","internalType":"uint256"}]},{"type":"error","name":"ERC20InsufficientBalance","inputs":[{"name":"sender","type":"address","internalType":"address"},{"name":"balance","type":"uint256","internalType":"uint256"},{"name":"needed","type":"uint256","internalType":"uint256"}]},{"type":"error","name":"ERC20InvalidApprover","inputs":[{"name":"approver","type":"address","internalType":"address"}]},{"type":"error","name":"ERC20InvalidReceiver","inputs":[{"name":"receiver","type":"address","internalType":"address"}]},{"type":"error","name":"ERC20InvalidSender","inputs":[{"name":"sender","type":"address","internalType":"address"}]},{"type":"error","name":"ERC20InvalidSpender","inputs":[{"name":"spender","type":"address","internalType":"address"}]},{"type":"error","name":"ERC2612ExpiredSignature","inputs":[{"name":"deadline","type":"uint256","internalType":"uint256"}]},{"type":"error","name":"ERC2612InvalidSigner","inputs":[{"name":"signer","type":"address","internalType":"address"},{"name":"owner","type":"address","internalType":"address"}]},{"type":"error","name":"EnforcedPause","inputs":[]},{"type":"error","name":"ExpectedPause","inputs":[]},{"type":"error","name":"FailToSend","inputs":[{"name":"target","type":"address","internalType":"address"},{"name":"amount","type":"uint256","internalType":"uint256"}]},{"type":"error","name":"FailedInnerCall","inputs":[]},{"type":"error","name":"InvalidAccountNonce","inputs":[{"name":"account","type":"address","internalType":"address"},{"name":"currentNonce","type":"uint256","internalType":"uint256"}]},{"type":"error","name":"InvalidInitialization","inputs":[]},{"type":"error","name":"LessThanTax","inputs":[{"name":"account","type":"address","internalType":"address"},{"name":"amount","type":"uint256","internalType":"uint256"},{"name":"tax","type":"uint256","internalType":"uint256"}]},{"type":"error","name":"NotCompleteRound","inputs":[]},{"type":"error","name":"NotInitializing","inputs":[]},{"type":"error","name":"OwnableInvalidOwner","inputs":[{"name":"owner","type":"address","internalType":"address"}]},{"type":"error","name":"OwnableUnauthorizedAccount","inputs":[{"name":"account","type":"address","internalType":"address"}]},{"type":"error","name":"UUPSUnauthorizedCallContext","inputs":[]},{"type":"error","name":"UUPSUnsupportedProxiableUUID","inputs":[{"name":"slot","type":"bytes32","internalType":"bytes32"}]}],"bytecode":{"object":"0x60a060405230608052610010610015565b6100c7565b7ff0c57e16840df040f15088dc2f81fe391c3923bec73e23a9662efc9c229c6a00805468010000000000000000900460ff16156100655760405163f92ee8a960e01b815260040160405180910390fd5b80546001600160401b03908116146100c45780546001600160401b0319166001600160401b0390811782556040519081527fc7f505b2f371ae2175ee4913f4499e1f2633a7b5936321eed1cdaeb6115181d29060200160405180910390a15b50565b6080516129a96100f0600039600081816115c0015281816115e9015261172a01526129a96000f3fe60806040526004361061026b5760003560e01c8063741bef1a11610144578063a9059cbb116100b6578063d8ab6ce11161007a578063d8ab6ce1146107c9578063dd62ed3e146107e9578063deaa59df14610809578063f2fde38b14610829578063f5537ede14610849578063fd2187251461086957600080fd5b8063a9059cbb14610718578063ad3cb1cc14610738578063b31c710a14610769578063be20309414610789578063d505accf146107a957600080fd5b80638456cb59116101085780638456cb591461067b57806384b0196e146106905780638da5cb5b146106b857806395d89b41146106cd5780639dc29fac146106e2578063a035b1fe1461070257600080fd5b8063741bef1a146105ef57806379cc67901461060f5780637b0c067b1461062f5780637dea2288146106455780637ecebe001461065b57600080fd5b80634f1ef286116101dd5780635b7a50f7116101a15780635b7a50f7146105405780635c975abb1461056057806367c9b0171461058557806370a082311461059a578063715018a6146105ba578063724e78da146105cf57600080fd5b80634f1ef286146104a0578063521eb273146104b357806352d1902d146104eb5780635355655914610500578063561ff35b1461052057600080fd5b80632ccb1b301161022f5780632ccb1b30146103fa578063313ce5671461041a5780633644e515146104365780633f4ba83a1461044b57806340c10f191461046057806342966c681461048057600080fd5b806306fdde0314610321578063095ea7b31461034c57806318160ddd1461037c5780631cb25cbc146103ba57806323b872dd146103da57600080fd5b3661031c5761028c303361027d610889565b61028790346122e9565b61093e565b6005546040516000916001600160a01b03169034908381818185875af1925050503d80600081146102d9576040519150601f19603f3d011682016040523d82523d6000602084013e6102de565b606091505b505090508061031a5760055460405163744b322560e11b81526001600160a01b0390911660048201523460248201526044015b60405180910390fd5b005b600080fd5b34801561032d57600080fd5b506103366109a2565b6040516103439190612350565b60405180910390f35b34801561035857600080fd5b5061036c610367366004612378565b610a4b565b6040519015158152602001610343565b34801561038857600080fd5b507f52c63247e1f47db19d5ce0460030c497f067ca4cebf71ba98eeadabe20bace02545b604051908152602001610343565b3480156103c657600080fd5b5061031a6103d53660046123b2565b610a65565b3480156103e657600080fd5b5061036c6103f53660046123eb565b610a92565b34801561040657600080fd5b5061036c610415366004612378565b610ae6565b34801561042657600080fd5b5060405160128152602001610343565b34801561044257600080fd5b506103ac610b04565b34801561045757600080fd5b5061031a610b13565b34801561046c57600080fd5b5061031a61047b366004612378565b610b25565b34801561048c57600080fd5b5061031a61049b36600461242c565b610b37565b61031a6104ae36600461245b565b610b44565b3480156104bf57600080fd5b506005546104d3906001600160a01b031681565b6040516001600160a01b039091168152602001610343565b3480156104f757600080fd5b506103ac610b5f565b34801561050c57600080fd5b506103ac61051b36600461242c565b610b7c565b34801561052c57600080fd5b5061031a61053b36600461242c565b610c0d565b34801561054c57600080fd5b5061031a61055b36600461251f565b610c1a565b34801561056c57600080fd5b506000805160206129548339815191525460ff1661036c565b34801561059157600080fd5b506103ac610889565b3480156105a657600080fd5b506103ac6105b536600461251f565b610c44565b3480156105c657600080fd5b5061031a610c77565b3480156105db57600080fd5b5061031a6105ea36600461251f565b610c89565b3480156105fb57600080fd5b506004546104d3906001600160a01b031681565b34801561061b57600080fd5b5061031a61062a366004612378565b610cb3565b34801561063b57600080fd5b506103ac60025481565b34801561065157600080fd5b506103ac60015481565b34801561066757600080fd5b506103ac61067636600461251f565b610cc8565b34801561068757600080fd5b5061031a610cd3565b34801561069c57600080fd5b506106a5610ce3565b604051610343979695949392919061253c565b3480156106c457600080fd5b506104d3610d8f565b3480156106d957600080fd5b50610336610dbd565b3480156106ee57600080fd5b5061031a6106fd366004612378565b610dfc565b34801561070e57600080fd5b506103ac60035481565b34801561072457600080fd5b5061036c610733366004612378565b610e04565b34801561074457600080fd5b50610336604051806040016040528060058152602001640352e302e360dc1b81525081565b34801561077557600080fd5b506008546104d3906001600160a01b031681565b34801561079557600080fd5b5061031a6107a43660046125d5565b610e43565b3480156107b557600080fd5b5061031a6107c4366004612628565b611036565b3480156107d557600080fd5b5061036c6107e436600461251f565b61118f565b3480156107f557600080fd5b506103ac61080436600461269f565b61119c565b34801561081557600080fd5b5061031a61082436600461251f565b6111e6565b34801561083557600080fd5b5061031a61084436600461251f565b611210565b34801561085557600080fd5b5061036c6108643660046123eb565b61124b565b34801561087557600080fd5b5061031a61088436600461242c565b6112c8565b60048054604080516350d25bcd60e01b8152905160009384936001600160a01b0316926350d25bcd92818301926020928290030181865afa1580156108d2573d6000803e3d6000fd5b505050506040513d601f19601f820116820180604052508101906108f691906126cd565b9050806000036109195760405163640c472360e11b815260040160405180910390fd5b6003546402540be4009061092d82846122e9565b61093791906126e6565b9250505090565b6001600160a01b03831661096857604051634b637e8f60e11b815260006004820152602401610311565b6001600160a01b0382166109925760405163ec442f0560e01b815260006004820152602401610311565b61099d8383836112d5565b505050565b606060006000805160206128f48339815191525b90508060030180546109c790612708565b80601f01602080910402602001604051908101604052809291908181526020018280546109f390612708565b8015610a405780601f10610a1557610100808354040283529160200191610a40565b820191906000526020600020905b815481529060010190602001808311610a2357829003601f168201915b505050505091505090565b600033610a598185856112e8565b60019150505b92915050565b610a6d6112f5565b8015610a7e5761099d600683611327565b80610a8e5761099d60068361133c565b5050565b6000610a9c611351565b610aa4610d8f565b6001600160a01b03163303610ac657610abe84848461093e565b506001610adf565b610ad1848484611382565b610adc8484846113e8565b90505b9392505050565b6000610af06112f5565b610afb30848461093e565b50600192915050565b6000610b0e6114df565b905090565b610b1b6112f5565b610b236114e9565b565b610b2d6112f5565b610a8e8282611549565b610b41338261157f565b50565b610b4c6115b5565b610b558261165a565b610a8e8282611662565b6000610b6961171f565b5060008051602061293483398151915290565b60085460405163a9059cbb60e01b8152306004820152602481018390526000916001600160a01b03169063a9059cbb906044016020604051808303816000875af1158015610bce573d6000803e3d6000fd5b505050506040513d601f19601f82011682018060405250810190610bf29190612742565b506000610c006005846126e6565b9050610a5f30338361093e565b610c156112f5565b600255565b610c226112f5565b600880546001600160a01b0319166001600160a01b0392909216919091179055565b6000806000805160206128f48339815191525b6001600160a01b0390931660009081526020939093525050604090205490565b610c7f6112f5565b610b236000611768565b610c916112f5565b600480546001600160a01b0319166001600160a01b0392909216919091179055565b610cbe823383611382565b610a8e828261157f565b6000610a5f826117d9565b610cdb6112f5565b610b23611802565b600060608082808083816000805160206129148339815191528054909150158015610d1057506001810154155b610d545760405162461bcd60e51b81526020600482015260156024820152741152540dcc4c8e88155b9a5b9a5d1a585b1a5e9959605a1b6044820152606401610311565b610d5c61184b565b610d6461188a565b60408051600080825260208201909252600f60f81b9c939b5091995046985030975095509350915050565b7f9016d09d72d40fdae2fd8ceac6b6234c7706214fd39c1cd1e609a0528c199300546001600160a01b031690565b7f52c63247e1f47db19d5ce0460030c497f067ca4cebf71ba98eeadabe20bace0480546060916000805160206128f4833981519152916109c790612708565b610cbe6112f5565b6000610e0e611351565b610e16610d8f565b6001600160a01b03163303610e3857610e3033848461093e565b506001610a5f565b610adf3384846113e8565b7ff0c57e16840df040f15088dc2f81fe391c3923bec73e23a9662efc9c229c6a008054600160401b810460ff16159067ffffffffffffffff16600081158015610e895750825b905060008267ffffffffffffffff166001148015610ea65750303b155b905081158015610eb4575080155b15610ed25760405163f92ee8a960e01b815260040160405180910390fd5b845467ffffffffffffffff191660011785558315610efc57845460ff60401b1916600160401b1785555b60005460ff16610fe557610f0f896118a2565b6000805460ff19166001179055610f246118b3565b610f706040518060400160405280600e81526020016d2232a834b71020a4902a37b5b2b760911b815250604051806040016040528060048152602001634450414960e01b8152506118bb565b610f786118cd565b610f806118b3565b610faf6040518060400160405280600e81526020016d2232a834b71020a4902a37b5b2b760911b8152506118dd565b600480546001600160a01b03808b166001600160a01b031992831617909255600389905560058054928916929091169190911790555b831561102b57845460ff60401b19168555604051600181527fc7f505b2f371ae2175ee4913f4499e1f2633a7b5936321eed1cdaeb6115181d29060200160405180910390a15b505050505050505050565b8342111561105a5760405163313c898160e11b815260048101859052602401610311565b60007f6e71edae12b1b97f4d1f60370fef10105fa2faae0126114a169c64845d6126c98888886110c68c6001600160a01b031660009081527f5ab42ced628888259c08ac98db1eb0cf702fc1501344311d8b100cd1bfe4bb006020526040902080546001810190915590565b6040805160208101969096526001600160a01b0394851690860152929091166060840152608083015260a082015260c0810186905260e001604051602081830303815290604052805190602001209050600061112182611908565b9050600061113182878787611935565b9050896001600160a01b0316816001600160a01b031614611178576040516325c0072360e11b81526001600160a01b0380831660048301528b166024820152604401610311565b6111838a8a8a6112e8565b50505050505050505050565b6000610a5f600683611963565b6001600160a01b0391821660009081527f52c63247e1f47db19d5ce0460030c497f067ca4cebf71ba98eeadabe20bace016020908152604080832093909416825291909152205490565b6111ee6112f5565b600580546001600160a01b0319166001600160a01b0392909216919091179055565b6112186112f5565b6001600160a01b03811661124257604051631e4fbdf760e01b815260006004820152602401610311565b610b4181611768565b60006112556112f5565b60405163a9059cbb60e01b81526001600160a01b0384811660048301526024820184905285169063a9059cbb906044016020604051808303816000875af11580156112a4573d6000803e3d6000fd5b505050506040513d601f19601f82011682018060405250810190610adc9190612742565b6112d06112f5565b600155565b6112dd611351565b61099d838383611985565b61099d8383836001611998565b336112fe610d8f565b6001600160a01b031614610b235760405163118cdaa760e01b8152336004820152602401610311565b6000610adf836001600160a01b038416611a80565b6000610adf836001600160a01b038416611acf565b6000805160206129548339815191525460ff1615610b235760405163d93c066560e01b815260040160405180910390fd5b600061138e848461119c565b905060001981146113e257818110156113d357604051637dc7a0d960e11b81526001600160a01b03841660048201526024810182905260448101839052606401610311565b6113e284848484036000611998565b50505050565b6000733f7084563353b2588d1463a823facf8a544255706001600160a01b038516148061143057506001600160a01b0384163b15801561143057506001600160a01b0383163b155b1561144057610abe84848461093e565b816002541061147f57600254604051630333f81760e61b81526001600160a01b0386166004820152602481018490526044810191909152606401610311565b60006103e86001548461149291906122e9565b61149c91906126e6565b90506002548110156114ad57506002545b80156114c5576114c5856114bf610d8f565b8361093e565b6114d48585610287848761275f565b506001949350505050565b6000610b0e611bc2565b6114f1611c36565b600080516020612954833981519152805460ff191681557f5db9ee0a495bf2e6ff9c91a7834c1ba4fdd244a5e8aa4e537bd38aeae4b073aa335b6040516001600160a01b03909116815260200160405180910390a150565b6001600160a01b0382166115735760405163ec442f0560e01b815260006004820152602401610311565b610a8e600083836112d5565b6001600160a01b0382166115a957604051634b637e8f60e11b815260006004820152602401610311565b610a8e826000836112d5565b306001600160a01b037f000000000000000000000000000000000000000000000000000000000000000016148061163c57507f00000000000000000000000000000000000000000000000000000000000000006001600160a01b0316611630600080516020612934833981519152546001600160a01b031690565b6001600160a01b031614155b15610b235760405163703e46dd60e11b815260040160405180910390fd5b610b416112f5565b816001600160a01b03166352d1902d6040518163ffffffff1660e01b8152600401602060405180830381865afa9250505080156116bc575060408051601f3d908101601f191682019092526116b9918101906126cd565b60015b6116e457604051634c9c8ce360e01b81526001600160a01b0383166004820152602401610311565b600080516020612934833981519152811461171557604051632a87526960e21b815260048101829052602401610311565b61099d8383611c66565b306001600160a01b037f00000000000000000000000000000000000000000000000000000000000000001614610b235760405163703e46dd60e11b815260040160405180910390fd5b7f9016d09d72d40fdae2fd8ceac6b6234c7706214fd39c1cd1e609a0528c19930080546001600160a01b031981166001600160a01b03848116918217845560405192169182907f8be0079c531659141344cd1fd0a4f28419497f9722a3daafe3b4186f6b6457e090600090a3505050565b6000807f5ab42ced628888259c08ac98db1eb0cf702fc1501344311d8b100cd1bfe4bb00610c57565b61180a611351565b600080516020612954833981519152805460ff191660011781557f62e78cea01bee320cd4e420270b5ea74000d11b0c9f74754ebdbfc544b05a2583361152b565b7fa16a46d94261c7517cc8ff89f61c0ce93598e3c849801011dee649a6a557d1028054606091600080516020612914833981519152916109c790612708565b606060006000805160206129148339815191526109b6565b6118aa611cbc565b610b4181611d05565b610b23611cbc565b6118c3611cbc565b610a8e8282611d0d565b6118d5611cbc565b610b23611d5e565b6118e5611cbc565b610b4181604051806040016040528060018152602001603160f81b815250611d7f565b6000610a5f6119156114df565b8360405161190160f01b8152600281019290925260228201526042902090565b60008060008061194788888888611de0565b9250925092506119578282611eaf565b50909695505050505050565b6001600160a01b03811660009081526001830160205260408120541515610adf565b61198d611351565b61099d838383611f68565b6000805160206128f48339815191526001600160a01b0385166119d15760405163e602df0560e01b815260006004820152602401610311565b6001600160a01b0384166119fb57604051634a1406b160e11b815260006004820152602401610311565b6001600160a01b03808616600090815260018301602090815260408083209388168352929052208390558115611a7957836001600160a01b0316856001600160a01b03167f8c5be1e5ebec7d5bd14f71427d1e84f3dd0314c0f7b2291e5b200ac8c7c3b92585604051611a7091815260200190565b60405180910390a35b5050505050565b6000818152600183016020526040812054611ac757508154600181810184556000848152602080822090930184905584548482528286019093526040902091909155610a5f565b506000610a5f565b60008181526001830160205260408120548015611bb8576000611af360018361275f565b8554909150600090611b079060019061275f565b9050808214611b6c576000866000018281548110611b2757611b27612772565b9060005260206000200154905080876000018481548110611b4a57611b4a612772565b6000918252602080832090910192909255918252600188019052604090208390555b8554869080611b7d57611b7d612788565b600190038181906000526020600020016000905590558560010160008681526020019081526020016000206000905560019350505050610a5f565b6000915050610a5f565b60007f8b73c3c69bb8fe3d512ecc4cf759cc79239f7b179b0ffacaa9a75d522b39400f611bed6120a6565b611bf5612110565b60408051602081019490945283019190915260608201524660808201523060a082015260c00160405160208183030381529060405280519060200120905090565b6000805160206129548339815191525460ff16610b2357604051638dfc202b60e01b815260040160405180910390fd5b611c6f82612154565b6040516001600160a01b038316907fbc7cd75a20ee27fd9adebab32041f755214dbc6bffa90cc0225b39da2e5c2d3b90600090a2805115611cb45761099d82826121b9565b610a8e61222f565b7ff0c57e16840df040f15088dc2f81fe391c3923bec73e23a9662efc9c229c6a0054600160401b900460ff16610b2357604051631afcd79f60e31b815260040160405180910390fd5b611218611cbc565b611d15611cbc565b6000805160206128f48339815191527f52c63247e1f47db19d5ce0460030c497f067ca4cebf71ba98eeadabe20bace03611d4f84826127ee565b50600481016113e283826127ee565b611d66611cbc565b600080516020612954833981519152805460ff19169055565b611d87611cbc565b6000805160206129148339815191527fa16a46d94261c7517cc8ff89f61c0ce93598e3c849801011dee649a6a557d102611dc184826127ee565b5060038101611dd083826127ee565b5060008082556001909101555050565b600080807f7fffffffffffffffffffffffffffffff5d576e7357a4501ddfe92f46681b20a0841115611e1b5750600091506003905082611ea5565b604080516000808252602082018084528a905260ff891692820192909252606081018790526080810186905260019060a0016020604051602081039080840390855afa158015611e6f573d6000803e3d6000fd5b5050604051601f1901519150506001600160a01b038116611e9b57506000925060019150829050611ea5565b9250600091508190505b9450945094915050565b6000826003811115611ec357611ec36128ae565b03611ecc575050565b6001826003811115611ee057611ee06128ae565b03611efe5760405163f645eedf60e01b815260040160405180910390fd5b6002826003811115611f1257611f126128ae565b03611f335760405163fce698f760e01b815260048101829052602401610311565b6003826003811115611f4757611f476128ae565b03610a8e576040516335e2f38360e21b815260048101829052602401610311565b6000805160206128f48339815191526001600160a01b038416611fa45781816002016000828254611f9991906128c4565b909155506120169050565b6001600160a01b03841660009081526020829052604090205482811015611ff75760405163391434e360e21b81526001600160a01b03861660048201526024810182905260448101849052606401610311565b6001600160a01b03851660009081526020839052604090209083900390555b6001600160a01b038316612034576002810180548390039055612053565b6001600160a01b03831660009081526020829052604090208054830190555b826001600160a01b0316846001600160a01b03167fddf252ad1be2c89b69c2b068fc378daa952ba7f163c4a11628f55a4df523b3ef8460405161209891815260200190565b60405180910390a350505050565b6000600080516020612914833981519152816120c061184b565b8051909150156120d857805160209091012092915050565b815480156120e7579392505050565b7fc5d2460186f7233c927e7db2dcc703c0e500b653ca82273b7bfad8045d85a470935050505090565b60006000805160206129148339815191528161212a61188a565b80519091501561214257805160209091012092915050565b600182015480156120e7579392505050565b806001600160a01b03163b60000361218a57604051634c9c8ce360e01b81526001600160a01b0382166004820152602401610311565b60008051602061293483398151915280546001600160a01b0319166001600160a01b0392909216919091179055565b6060600080846001600160a01b0316846040516121d691906128d7565b600060405180830381855af49150503d8060008114612211576040519150601f19603f3d011682016040523d82523d6000602084013e612216565b606091505b509150915061222685838361224e565b95945050505050565b3415610b235760405163b398979f60e01b815260040160405180910390fd5b6060826122635761225e826122aa565b610adf565b815115801561227a57506001600160a01b0384163b155b156122a357604051639996b31560e01b81526001600160a01b0385166004820152602401610311565b5080610adf565b8051156122ba5780518082602001fd5b604051630a12f52160e11b815260040160405180910390fd5b634e487b7160e01b600052601160045260246000fd5b8082028115828204841417610a5f57610a5f6122d3565b60005b8381101561231b578181015183820152602001612303565b50506000910152565b6000815180845261233c816020860160208601612300565b601f01601f19169290920160200192915050565b602081526000610adf6020830184612324565b6001600160a01b0381168114610b4157600080fd5b6000806040838503121561238b57600080fd5b823561239681612363565b946020939093013593505050565b8015158114610b4157600080fd5b600080604083850312156123c557600080fd5b82356123d081612363565b915060208301356123e0816123a4565b809150509250929050565b60008060006060848603121561240057600080fd5b833561240b81612363565b9250602084013561241b81612363565b929592945050506040919091013590565b60006020828403121561243e57600080fd5b5035919050565b634e487b7160e01b600052604160045260246000fd5b6000806040838503121561246e57600080fd5b823561247981612363565b9150602083013567ffffffffffffffff8082111561249657600080fd5b818501915085601f8301126124aa57600080fd5b8135818111156124bc576124bc612445565b604051601f8201601f19908116603f011681019083821181831017156124e4576124e4612445565b816040528281528860208487010111156124fd57600080fd5b8260208601602083013760006020848301015280955050505050509250929050565b60006020828403121561253157600080fd5b8135610adf81612363565b60ff60f81b881681526000602060e0602084015261255d60e084018a612324565b838103604085015261256f818a612324565b606085018990526001600160a01b038816608086015260a0850187905284810360c08601528551808252602080880193509091019060005b818110156125c3578351835292840192918401916001016125a7565b50909c9b505050505050505050505050565b600080600080608085870312156125eb57600080fd5b84356125f681612363565b9350602085013561260681612363565b925060408501359150606085013561261d81612363565b939692955090935050565b600080600080600080600060e0888a03121561264357600080fd5b873561264e81612363565b9650602088013561265e81612363565b95506040880135945060608801359350608088013560ff8116811461268257600080fd5b9699959850939692959460a0840135945060c09093013592915050565b600080604083850312156126b257600080fd5b82356126bd81612363565b915060208301356123e081612363565b6000602082840312156126df57600080fd5b5051919050565b60008261270357634e487b7160e01b600052601260045260246000fd5b500490565b600181811c9082168061271c57607f821691505b60208210810361273c57634e487b7160e01b600052602260045260246000fd5b50919050565b60006020828403121561275457600080fd5b8151610adf816123a4565b81810381811115610a5f57610a5f6122d3565b634e487b7160e01b600052603260045260246000fd5b634e487b7160e01b600052603160045260246000fd5b601f82111561099d576000816000526020600020601f850160051c810160208610156127c75750805b601f850160051c820191505b818110156127e6578281556001016127d3565b505050505050565b815167ffffffffffffffff81111561280857612808612445565b61281c816128168454612708565b8461279e565b602080601f83116001811461285157600084156128395750858301515b600019600386901b1c1916600185901b1785556127e6565b600085815260208120601f198616915b8281101561288057888601518255948401946001909101908401612861565b508582101561289e5787850151600019600388901b60f8161c191681555b5050505050600190811b01905550565b634e487b7160e01b600052602160045260246000fd5b80820180821115610a5f57610a5f6122d3565b600082516128e9818460208701612300565b919091019291505056fe52c63247e1f47db19d5ce0460030c497f067ca4cebf71ba98eeadabe20bace00a16a46d94261c7517cc8ff89f61c0ce93598e3c849801011dee649a6a557d100360894a13ba1a3210667c828492db98dca3e2076cc3735a920a3ca505d382bbccd5ed15c6e187e77e9aee88184c21f4f2182ab5827cb3b7e07fbedcd63f03300a264697066735822122074ae6111cf7a49dc47c52111a815824b233dd65128220428cbf3e94a556bfe2564736f6c63430008190033","linkReferences":{}},"methodIdentifiers":{"DOMAIN_SEPARATOR()":"3644e515","UPGRADE_INTERFACE_VERSION()":"ad3cb1cc","allowance(address,address)":"dd62ed3e","approve(address,uint256)":"095ea7b3","balanceOf(address)":"70a08231","burn(address,uint256)":"9dc29fac","burn(uint256)":"42966c68","burnFrom(address,uint256)":"79cc6790","decimals()":"313ce567","eip712Domain()":"84b0196e","exchange(uint256)":"53556559","getEthPrice()":"67c9b017","initialize(address,address,uint256,address)":"be203094","isTaxFree(address)":"d8ab6ce1","minimalTax()":"7b0c067b","mint(address,uint256)":"40c10f19","name()":"06fdde03","nonces(address)":"7ecebe00","oldToken()":"b31c710a","owner()":"8da5cb5b","pause()":"8456cb59","paused()":"5c975abb","permit(address,address,uint256,uint256,uint8,bytes32,bytes32)":"d505accf","price()":"a035b1fe","priceFeed()":"741bef1a","proxiableUUID()":"52d1902d","renounceOwnership()":"715018a6","setMinimalTax(uint256)":"561ff35b","setOldToken(address)":"5b7a50f7","setPriceFeed(address)":"724e78da","setTaxFree(address,bool)":"1cb25cbc","setTaxPromille(uint256)":"fd218725","setWallet(address)":"deaa59df","symbol()":"95d89b41","taxPromille()":"7dea2288","totalSupply()":"18160ddd","transfer(address,uint256)":"a9059cbb","transferFrom(address,address,uint256)":"23b872dd","transferOwnership(address)":"f2fde38b","transferTo(address,uint256)":"2ccb1b30","transferToken(address,address,uint256)":"f5537ede","unpause()":"3f4ba83a","upgradeToAndCall(address,bytes)":"4f1ef286","wallet()":"521eb273"},"id":1}