{"abi":[{"type":"constructor","inputs":[],"stateMutability":"payable"},{"type":"function","name":"UPGRADE_INTERFACE_VERSION","inputs":[],"outputs":[{"name":"","type":"string","internalType":"string"}],"stateMutability":"view"},{"type":"function","name":"claim","inputs":[{"name":"proof","type":"bytes32[]","internalType":"bytes32[]"},{"name":"addr","type":"address","internalType":"address"},{"name":"amount","type":"uint256","internalType":"uint256"}],"outputs":[],"stateMutability":"nonpayable"},{"type":"function","name":"claimed","inputs":[{"name":"addr","type":"address","internalType":"address"}],"outputs":[{"name":"","type":"bool","internalType":"bool"}],"stateMutability":"view"},{"type":"function","name":"initialize","inputs":[{"name":"owner_","type":"address","internalType":"address"},{"name":"root_","type":"bytes32","internalType":"bytes32"},{"name":"token_","type":"address","internalType":"address"}],"outputs":[],"stateMutability":"nonpayable"},{"type":"function","name":"owner","inputs":[],"outputs":[{"name":"","type":"address","internalType":"address"}],"stateMutability":"view"},{"type":"function","name":"pause","inputs":[],"outputs":[],"stateMutability":"nonpayable"},{"type":"function","name":"paused","inputs":[],"outputs":[{"name":"","type":"bool","internalType":"bool"}],"stateMutability":"view"},{"type":"function","name":"proxiableUUID","inputs":[],"outputs":[{"name":"","type":"bytes32","internalType":"bytes32"}],"stateMutability":"view"},{"type":"function","name":"renounceOwnership","inputs":[],"outputs":[],"stateMutability":"nonpayable"},{"type":"function","name":"root","inputs":[],"outputs":[{"name":"","type":"bytes32","internalType":"bytes32"}],"stateMutability":"view"},{"type":"function","name":"set","inputs":[{"name":"addr","type":"address","internalType":"address"}],"outputs":[],"stateMutability":"nonpayable"},{"type":"function","name":"setRoot","inputs":[{"name":"newRoot","type":"bytes32","internalType":"bytes32"}],"outputs":[],"stateMutability":"nonpayable"},{"type":"function","name":"setToken","inputs":[{"name":"newToken","type":"address","internalType":"address"}],"outputs":[],"stateMutability":"nonpayable"},{"type":"function","name":"token","inputs":[],"outputs":[{"name":"","type":"address","internalType":"address"}],"stateMutability":"view"},{"type":"function","name":"transferOwnership","inputs":[{"name":"newOwner","type":"address","internalType":"address"}],"outputs":[],"stateMutability":"nonpayable"},{"type":"function","name":"unpause","inputs":[],"outputs":[],"stateMutability":"nonpayable"},{"type":"function","name":"unset","inputs":[{"name":"addr","type":"address","internalType":"address"}],"outputs":[],"stateMutability":"nonpayable"},{"type":"function","name":"upgradeToAndCall","inputs":[{"name":"newImplementation","type":"address","internalType":"address"},{"name":"data","type":"bytes","internalType":"bytes"}],"outputs":[],"stateMutability":"payable"},{"type":"event","name":"Initialized","inputs":[{"name":"version","type":"uint64","indexed":false,"internalType":"uint64"}],"anonymous":false},{"type":"event","name":"OwnershipTransferred","inputs":[{"name":"previousOwner","type":"address","indexed":true,"internalType":"address"},{"name":"newOwner","type":"address","indexed":true,"internalType":"address"}],"anonymous":false},{"type":"event","name":"Paused","inputs":[{"name":"account","type":"address","indexed":false,"internalType":"address"}],"anonymous":false},{"type":"event","name":"Unpaused","inputs":[{"name":"account","type":"address","indexed":false,"internalType":"address"}],"anonymous":false},{"type":"event","name":"Upgraded","inputs":[{"name":"implementation","type":"address","indexed":true,"internalType":"address"}],"anonymous":false},{"type":"error","name":"AddressEmptyCode","inputs":[{"name":"target","type":"address","internalType":"address"}]},{"type":"error","name":"AlreadyClaimed","inputs":[{"name":"claimer","type":"address","internalType":"address"}]},{"type":"error","name":"CannotTransfer","inputs":[{"name":"target","type":"address","internalType":"address"},{"name":"amount","type":"uint256","internalType":"uint256"}]},{"type":"error","name":"ERC1967InvalidImplementation","inputs":[{"name":"implementation","type":"address","internalType":"address"}]},{"type":"error","name":"ERC1967NonPayable","inputs":[]},{"type":"error","name":"EnforcedPause","inputs":[]},{"type":"error","name":"ExpectedPause","inputs":[]},{"type":"error","name":"FailedInnerCall","inputs":[]},{"type":"error","name":"InvalidInitialization","inputs":[]},{"type":"error","name":"InvalidProof","inputs":[]},{"type":"error","name":"NotInitializing","inputs":[]},{"type":"error","name":"OwnableInvalidOwner","inputs":[{"name":"owner","type":"address","internalType":"address"}]},{"type":"error","name":"OwnableUnauthorizedAccount","inputs":[{"name":"account","type":"address","internalType":"address"}]},{"type":"error","name":"UUPSUnauthorizedCallContext","inputs":[]},{"type":"error","name":"UUPSUnsupportedProxiableUUID","inputs":[{"name":"slot","type":"bytes32","internalType":"bytes32"}]}],"bytecode":{"object":"0x60a060405230608052610010610015565b6100c7565b7ff0c57e16840df040f15088dc2f81fe391c3923bec73e23a9662efc9c229c6a00805468010000000000000000900460ff16156100655760405163f92ee8a960e01b815260040160405180910390fd5b80546001600160401b03908116146100c45780546001600160401b0319166001600160401b0390811782556040519081527fc7f505b2f371ae2175ee4913f4499e1f2633a7b5936321eed1cdaeb6115181d29060200160405180910390a15b50565b6080516111ff6100f0600039600081816108ce015281816108f70152610a3d01526111ff6000f3fe6080604052600436106101095760003560e01c80638da5cb5b11610095578063d26b3e6e11610064578063d26b3e6e146102ea578063dab5f3401461030a578063ebf0c7171461032a578063f2fde38b14610340578063fc0c546a1461036057600080fd5b80638da5cb5b1461021b578063ad3cb1cc1461026c578063c884ef83146102aa578063ca21b177146102ca57600080fd5b80634f1ef286116100dc5780634f1ef2861461018557806352d1902d146101985780635c975abb146101c0578063715018a6146101f15780638456cb591461020657600080fd5b8063144fa6d71461010e5780632801617e146101305780632966d1b9146101505780633f4ba83a14610170575b600080fd5b34801561011a57600080fd5b5061012e610129366004610ea7565b610380565b005b34801561013c57600080fd5b5061012e61014b366004610ea7565b6103aa565b34801561015c57600080fd5b5061012e61016b366004610ea7565b6103e1565b34801561017c57600080fd5b5061012e610415565b61012e610193366004610f09565b610427565b3480156101a457600080fd5b506101ad610442565b6040519081526020015b60405180910390f35b3480156101cc57600080fd5b506000805160206111aa8339815191525460ff165b60405190151581526020016101b7565b3480156101fd57600080fd5b5061012e61045f565b34801561021257600080fd5b5061012e610471565b34801561022757600080fd5b507f9016d09d72d40fdae2fd8ceac6b6234c7706214fd39c1cd1e609a0528c199300546001600160a01b03165b6040516001600160a01b0390911681526020016101b7565b34801561027857600080fd5b5061029d604051806040016040528060058152602001640352e302e360dc1b81525081565b6040516101b79190610fd3565b3480156102b657600080fd5b506101e16102c5366004610ea7565b610481565b3480156102d657600080fd5b5061012e6102e5366004611006565b6104bb565b3480156102f657600080fd5b5061012e6103053660046110c7565b610663565b34801561031657600080fd5b5061012e610325366004611103565b6107bd565b34801561033657600080fd5b506101ad60015481565b34801561034c57600080fd5b5061012e61035b366004610ea7565b6107ca565b34801561036c57600080fd5b50600254610254906001600160a01b031681565b610388610808565b600280546001600160a01b0319166001600160a01b0392909216919091179055565b6103b2610808565b6001600160981b03600882901c1660009081526003602052604090208054600160ff84161b17905550565b5050565b6103e9610808565b6001600160981b03600882901c1660009081526003602052604090208054600160ff84161b1916905550565b61041d610808565b610425610863565b565b61042f6108c3565b61043882610968565b6103dd8282610970565b600061044c610a32565b5060008051602061118a83398151915290565b610467610808565b6104256000610a7b565b610479610808565b610425610aec565b6001600160981b03600882901c166000908152600360205260408120546001600160a01b03831690600160ff85161b1615155b9392505050565b6001600160981b03600883901c166000908152600360205260409020546001600160a01b03831690600160ff85161b161561051957604051632058b6db60e01b81526001600160a01b03841660048201526024015b60405180910390fd5b604080516001600160a01b038516602082015290810183905260009060600160408051601f198184030181528282528051602091820120908301520160405160208183030381529060405280519060200120905061057a8560015483610b35565b610597576040516309bde33960e01b815260040160405180910390fd5b600882901c60009081526003602052604090208054600160ff85161b17905560025460405163a9059cbb60e01b81526001600160a01b038681166004830152602482018690529091169063a9059cbb906044016020604051808303816000875af1158015610609573d6000803e3d6000fd5b505050506040513d601f19601f8201168201806040525081019061062d919061111c565b61065c57604051637111172f60e01b81526001600160a01b038516600482015260248101849052604401610510565b5050505050565b7ff0c57e16840df040f15088dc2f81fe391c3923bec73e23a9662efc9c229c6a008054600160401b810460ff16159067ffffffffffffffff166000811580156106a95750825b905060008267ffffffffffffffff1660011480156106c65750303b155b9050811580156106d4575080155b156106f25760405163f92ee8a960e01b815260040160405180910390fd5b845467ffffffffffffffff19166001178555831561071c57845460ff60401b1916600160401b1785555b60005460ff1661076d5761072f88610b4b565b6000805460ff19166001179055610744610b5c565b61074c610b64565b6001879055600280546001600160a01b0319166001600160a01b0388161790555b83156107b357845460ff60401b19168555604051600181527fc7f505b2f371ae2175ee4913f4499e1f2633a7b5936321eed1cdaeb6115181d29060200160405180910390a15b5050505050505050565b6107c5610808565b600155565b6107d2610808565b6001600160a01b0381166107fc57604051631e4fbdf760e01b815260006004820152602401610510565b61080581610a7b565b50565b3361083a7f9016d09d72d40fdae2fd8ceac6b6234c7706214fd39c1cd1e609a0528c199300546001600160a01b031690565b6001600160a01b0316146104255760405163118cdaa760e01b8152336004820152602401610510565b61086b610b74565b6000805160206111aa833981519152805460ff191681557f5db9ee0a495bf2e6ff9c91a7834c1ba4fdd244a5e8aa4e537bd38aeae4b073aa335b6040516001600160a01b03909116815260200160405180910390a150565b306001600160a01b037f000000000000000000000000000000000000000000000000000000000000000016148061094a57507f00000000000000000000000000000000000000000000000000000000000000006001600160a01b031661093e60008051602061118a833981519152546001600160a01b031690565b6001600160a01b031614155b156104255760405163703e46dd60e11b815260040160405180910390fd5b610805610808565b816001600160a01b03166352d1902d6040518163ffffffff1660e01b8152600401602060405180830381865afa9250505080156109ca575060408051601f3d908101601f191682019092526109c79181019061113e565b60015b6109f257604051634c9c8ce360e01b81526001600160a01b0383166004820152602401610510565b60008051602061118a8339815191528114610a2357604051632a87526960e21b815260048101829052602401610510565b610a2d8383610ba4565b505050565b306001600160a01b037f000000000000000000000000000000000000000000000000000000000000000016146104255760405163703e46dd60e11b815260040160405180910390fd5b7f9016d09d72d40fdae2fd8ceac6b6234c7706214fd39c1cd1e609a0528c19930080546001600160a01b031981166001600160a01b03848116918217845560405192169182907f8be0079c531659141344cd1fd0a4f28419497f9722a3daafe3b4186f6b6457e090600090a3505050565b610af4610bfa565b6000805160206111aa833981519152805460ff191660011781557f62e78cea01bee320cd4e420270b5ea74000d11b0c9f74754ebdbfc544b05a258336108a5565b600082610b428584610c2b565b14949350505050565b610b53610c6e565b61080581610cb7565b610425610c6e565b610b6c610c6e565b610425610cbf565b6000805160206111aa8339815191525460ff1661042557604051638dfc202b60e01b815260040160405180910390fd5b610bad82610ce0565b6040516001600160a01b038316907fbc7cd75a20ee27fd9adebab32041f755214dbc6bffa90cc0225b39da2e5c2d3b90600090a2805115610bf257610a2d8282610d45565b6103dd610dbb565b6000805160206111aa8339815191525460ff16156104255760405163d93c066560e01b815260040160405180910390fd5b600081815b8451811015610c6657610c5c82868381518110610c4f57610c4f611157565b6020026020010151610dda565b9150600101610c30565b509392505050565b7ff0c57e16840df040f15088dc2f81fe391c3923bec73e23a9662efc9c229c6a0054600160401b900460ff1661042557604051631afcd79f60e31b815260040160405180910390fd5b6107d2610c6e565b610cc7610c6e565b6000805160206111aa833981519152805460ff19169055565b806001600160a01b03163b600003610d1657604051634c9c8ce360e01b81526001600160a01b0382166004820152602401610510565b60008051602061118a83398151915280546001600160a01b0319166001600160a01b0392909216919091179055565b6060600080846001600160a01b031684604051610d62919061116d565b600060405180830381855af49150503d8060008114610d9d576040519150601f19603f3d011682016040523d82523d6000602084013e610da2565b606091505b5091509150610db2858383610e06565b95945050505050565b34156104255760405163b398979f60e01b815260040160405180910390fd5b6000818310610df65760008281526020849052604090206104b4565b5060009182526020526040902090565b606082610e1b57610e1682610e62565b6104b4565b8151158015610e3257506001600160a01b0384163b155b15610e5b57604051639996b31560e01b81526001600160a01b0385166004820152602401610510565b50806104b4565b805115610e725780518082602001fd5b604051630a12f52160e11b815260040160405180910390fd5b80356001600160a01b0381168114610ea257600080fd5b919050565b600060208284031215610eb957600080fd5b6104b482610e8b565b634e487b7160e01b600052604160045260246000fd5b604051601f8201601f1916810167ffffffffffffffff81118282101715610f0157610f01610ec2565b604052919050565b60008060408385031215610f1c57600080fd5b610f2583610e8b565b915060208084013567ffffffffffffffff80821115610f4357600080fd5b818601915086601f830112610f5757600080fd5b813581811115610f6957610f69610ec2565b610f7b601f8201601f19168501610ed8565b91508082528784828501011115610f9157600080fd5b80848401858401376000848284010152508093505050509250929050565b60005b83811015610fca578181015183820152602001610fb2565b50506000910152565b6020815260008251806020840152610ff2816040850160208701610faf565b601f01601f19169190910160400192915050565b60008060006060848603121561101b57600080fd5b833567ffffffffffffffff8082111561103357600080fd5b818601915086601f83011261104757600080fd5b813560208282111561105b5761105b610ec2565b8160051b925061106c818401610ed8565b828152928401810192818101908a85111561108657600080fd5b948201945b848610156110a45785358252948201949082019061108b565b97506110b39050888201610e8b565b955050505050604084013590509250925092565b6000806000606084860312156110dc57600080fd5b6110e584610e8b565b9250602084013591506110fa60408501610e8b565b90509250925092565b60006020828403121561111557600080fd5b5035919050565b60006020828403121561112e57600080fd5b815180151581146104b457600080fd5b60006020828403121561115057600080fd5b5051919050565b634e487b7160e01b600052603260045260246000fd5b6000825161117f818460208701610faf565b919091019291505056fe360894a13ba1a3210667c828492db98dca3e2076cc3735a920a3ca505d382bbccd5ed15c6e187e77e9aee88184c21f4f2182ab5827cb3b7e07fbedcd63f03300a2646970667358221220e8c071f318c50cda4427f28df90bef9d4b830bc99686500aad5083a1d44e7d3364736f6c63430008190033","linkReferences":{}},"methodIdentifiers":{"UPGRADE_INTERFACE_VERSION()":"ad3cb1cc","claim(bytes32[],address,uint256)":"ca21b177","claimed(address)":"c884ef83","initialize(address,bytes32,address)":"d26b3e6e","owner()":"8da5cb5b","pause()":"8456cb59","paused()":"5c975abb","proxiableUUID()":"52d1902d","renounceOwnership()":"715018a6","root()":"ebf0c717","set(address)":"2801617e","setRoot(bytes32)":"dab5f340","setToken(address)":"144fa6d7","token()":"fc0c546a","transferOwnership(address)":"f2fde38b","unpause()":"3f4ba83a","unset(address)":"2966d1b9","upgradeToAndCall(address,bytes)":"4f1ef286"},"id":0}